:100000000C945A000C946C000C946C000C946C00D2
:100010000C946C000C946C000C946C000C946C00B0
:100020000C946C000C946C000C946C000C946C00A0
:100030000C946C000C946C000C946C000C946C0090
:100040000C946C000C946C000C946C000C946C0080
:100050000C946C000C946C000C946C000C946C0070
:100060000C946C000C946C000C946C000C946C0060
:100070000C946C000C946C000C946C000C946C0050
:100080000C946C000C946C000C946C000C946C0040
:100090000C946C000C946C000C946C000C946C0030
:1000A0000C946C000C946C000C946C000C946C0020
:1000B0000C946C0011241FBECFEFD8E0DEBFCDBF83
:1000C00021E0A0E0B1E001C01D92A931B207E1F743
:1000D0000E9494000C9470010C9400000F931F93E5
:1000E000CF93DF938230D0F0C82FD0E0FE01E050F4
:1000F000FF4F908191110EC08FEF8C0F0E946E0008
:10010000082F8EEF8C0F0E946E00FE01E050FF4F13
:10011000800F8083C050DF4F888101C081E0DF9174
:10012000CF911F910F91089580E00E946E00682F7B
:1001300080E090E00E94620181E00E946E00682FE2
:1001400081E090E00E94620182E00E946E00682FD0
:1001500082E090E00E94620183E00E946E00682FBE
:1001600083E090E00E94620184E00E946E00682FAC
:1001700084E090E00E94620185E00E946E00682F9A
:1001800085E090E00E94620186E00E946E00682F88
:1001900086E090E00E94620187E00E946E00682F76
:1001A00087E090E00E94620188E00E946E00682F64
:1001B00088E090E00E94620189E00E946E00682F52
:1001C00089E090E00E9462018AE00E946E00682F40
:1001D0008AE090E00E9462018BE00E946E00682F2E
:1001E0008BE090E00E9462018CE00E946E00682F1C
:1001F0008CE090E00E9462018DE00E946E00682F0A
:100200008DE090E00E9462018EE00E946E00682FF7
:100210008EE090E00E9462018FE00E946E00682FE5
:100220008FE090E00E94620180E10E946E00682FE2
:1002300080E190E00E94620181E10E946E00682FDF
:1002400081E190E00E94620182E10E946E00682FCD
:1002500082E190E00E94620183E10E946E00682FBB
:1002600083E190E00E94620184E10E946E00682FA9
:1002700084E190E00E94620185E10E946E00682F97
:1002800085E190E00E94620186E10E946E00682F85
:1002900086E190E00E94620187E10E946E00682F73
:1002A00087E190E00E94620188E10E946E00682F61
:1002B00088E190E00E946201E0E0F0E7099580E0CB
:1002C00090E00895262FF999FECF1FBA92BD81BD07
:1002D00020BD0FB6F894FA9AF99A0FBE01960895C8
:0402E000F894FFCFC0
:00000001FF
